:100000000C947C010C94691B0C94C3010C94C301E7
:100010000C94C3010C94C3010C94C3010C94C30150
:100020000C94C3010C94C3010C94E8220C94BC23DF
:100030000C94F81D0C94C3010C94C3010C94C301DF
:100040000C94C3010C94C3010C94C3010C94C30120
:100050000C94C3010C946B1E0C94C3010C94C3014B
:100060000C94C3010C94C3010C94C3010C94C30100
:100070000C94C3010C94C3010C94C3010C94C301F0
:100080000C94C3010C94C3010C94C3010C94C301E0
:100090000C94C3010C94C3010C94C3010C94C301D0
:1000A0000C94C3010C94C3010C94C30135001E00D1
:1000B0001F002000210022002B0014001A0008005D
:1000C00015001700015104001600070009000A007E
:1000D000E1001D001B000600190005002900E000DA
:1000E0003900E200E3002C000000000000000000E6
:1000F00028002A00230024002500260027002E00C7
:100100001C0018000C00120013002D000B000D0045
:100110000E000F00330034000500110010003600FF
:10012000370038002C00E6005000510052004F000C
:100130002A00280000000000000000003A003B00F8
:100140003C003D003E003F00010001005200010064
:10015000010001000100500051004F0001002F007C
:1001600001004A004B004E00010026020100010080
:10017000010001000100010000000000000000007B
:1001800001000100400041004200430044004500DE
:10019000010024002500260001000100300021009C
:1001A000220023000100010027021E001F00200082
:1001B0000100010001002700010001000100010011
:1001C0000100010000000000000000000C035700C7
:1001D00069006E0067004200000010034D006100DE
:1001E00073007400650072007900000004030904C4
:1001F00009023B00020100A0FA090400000103010A
:1002000001000921110100012240000705810308B6
:10021000000A090401000103000000092111010086
:1002200001227B000705820320000A120100020060
:10023000000008EDFE6666010001020001050109EB
:1002400002A10185020901A100050919012908156A
:100250000025019508750181020501093009311554
:1002600081257F95027508810609381581257F95BE
:100270000175088106050C0A38021581257F950154
:1002800075088106C0C005010980A1018503190117
:100290002AB700150126B700950175108100C00529
:1002A0000C0901A101850419012AA002150126A04B
:1002B00002950175108100C005010906A10105071D
:1002C00019E029E7150025019508750181029501BE
:1002D000750881010507190029FF150026FF009503
:1002E0000675088100050819012905950575019114
:1002F00002950175039101C011241FBECFEFDAE012
:10030000DEBFCDBF04B603FE27C08091C30290912B
:10031000C402A091C502B091C6028730904BA7409D
:10032000B04BD1F41092C3021092C4021092C502D5
:100330001092C60214BE84B7877F84BF0FB6F894AC
:10034000A8958091600088618093600010926000A1
:100350000FBEE0E0F8E3099511E0A0E0B1E0E0E6CF
:10036000FCE402C005900D92AE3AB107D9F722E045
:10037000AEEAB1E001C01D92A33CB207E1F70E94D2
:10038000A9140C9406260C9400000C94AA1081E089
:10039000089581E008950C94C70108950C94CD014F
:1003A0001F93CF93DF9300D000D00F92CDB7DEB76D
:1003B00049835A836B833091B00189819A813111CD
:1003C0001DC06623B9F02223A9F00E94CF07182F81
:1003D000682F89819A810E94780769817A81812FAB
:1003E0000F900F900F900F900F90DF91CF911F9172
:1003F0000C941B0E0E94A607182FEFCF0E94CF0768
:1004000069817A81EDCFFC01262F40815181628183
:10041000738184810C94D00181E00895CF93DF93A0
:10042000EC0160E00E940302BE01DF91CF910C94C9
:10043000CE010E9486100E949B020C94C5010C9470
:10044000AC10089508950C9422020E94230280E0CB
:100450000C949C0208950E9421060E942A022FEF0C
:1004600084E39CE0215080409040E1F700C0000010
:100470000C948F1E0F931F93CF93DF938C0161E039
:100480000E940302EC01B8010E94CB018823A9F16C
:10049000B801CE010E94711A882379F1B801CE010A
:1004A0000E945917882349F1B801CE010E94DB1937
:1004B000882319F1F8018281882361F0CB35FDE5AD
:1004C000DF0721F170F4C115ECE5DE07A1F0CF3DA7
:1004D000DC45C9F0C801DF91CF911F910F910C94B9
:1004E000C901CC358DE5D807A1F0CD35DD4591F7B3
:1004F0000E947C0CEFCF0E942B0280E0DF91CF9115
:100500001F910F9108950E94360DF7CF0E94850C20
:10051000E1CF0E94880CDECF0C9421020E94ED1CDA
:100520000E949C020C948C0208950C94940281E029
:1005300008950C9497020895CF93C82F0E949502B6
:100540008C2FCF910C949902CF93DF93CDB7DEB768
:100550002B970FB6F894DEBF0FBECDBF4F835887E1
:1005600069877A878B8761110E94CA0B1E821D8260
:1005700085E0FE013796DE01119601900D928A9575
:10058000E1F78C819D81892B89F449815A816B81A6
:100590007C818D819E810E94EB0A2B960FB6F89488
:1005A000DEBF0FBECDBFDF91CF91089589819A81C3
:1005B00089238F3F51F3CE0101960E940C028111D5
:1005C000E4CFEBCFFC01808191810C941108CF9393
:1005D000C82F882309F44CC08CEF8C0F813AC8F4E3
:1005E0008C2F0E941D19811143C06C2F8091020134
:1005F000909103010E94571D882329F08C2F0E949F
:100600008C0B0E94FA0B8C2F0E94850BCF910C94BF
:10061000FA0B80E28C0F883048F4C77081E001C08B
:10062000880FCA95EAF70E94AD0BF0CFEBE5EC0F0F
:10063000E33040F4F0E0EA59FE4F808190E0CF9142
:100640000C94191DE8E5EC0FE73150F4F0E0EE0FE3
:10065000FF1FE85CFE4F80819181CF910C942F1D8C
:10066000CD3E30F08C2F0E943915CF910C940C1692
:10067000CF910895882361F19CEF980F913A20F46F
:100680000E948C0B0C94FA0B90E2980F983050F467
:10069000877091E001C0990F8A95EAF7892F0E942F
:1006A000B30BF0CF9BE5980F933020F490E080E0FF
:1006B0000C94191D98E5980F973120F490E080E094
:1006C0000C942F1D8D3E20F00E9493150C940C1657
:1006D00008951F93CF93DF93182FEB010E94E70239
:1006E000209731F4812FDF91CF911F910C943A0321
:1006F0008FE99FE00197F1F700C000002197F0CF4C
:1007000070E060E0893311F460E570E00C946903F7
:10071000882321F00E94AD0B0C94FA0B08958823D6
:1007200021F00E94B30B0C94FA0B0895BF92CF9264
:10073000DF92EF92FF920F931F93CF93DF936C01A1
:10074000D62FC72FFC011281F580F2949FE0F92289
:100750000E94A30BE82E8823B9F0E12E1123A1F00B
:100760008C2F807F803421F080E28D0F8830B0F0B4
:100770008091960282FD12C082E00E944B0C0E9482
:10078000A30B91E0E82EE926BC2EB2948FE0B822AC
:10079000EB2DF0E0E85FF94D0C949425E12CF4CFBB
:1007A0000C2F0F70C07F11F00295007F112399F07C
:1007B000002359F080E28D0F883010F0D11107C06E
:1007C000802F0E94AD0B0E94FA0B8D2F41C0802F0D
:1007D0000E94BD0BF8CF8D2F0E943A03002309F42D
:1007E0003FC080E28D0F883010F0D11104C0802FFF
:1007F0000E94B30B03C0802F0E94C30B0E94FA0B10
:100800002FC00C2F0F70C07FC03211F00295007FF7
:10081000DD2381F0D13009F469C0112309F473C0DC
:10082000FF2009F469C0F601858180FFCECF8F706B
:10083000858362C08091960282FF38C0112359F0EF
:10084000002329F0802F0E94AD0B0E94FA0B80E05C
:100850000E94E70205C080E00E943A030111C7CF61
:10086000EB2DE850FF0B349720F40E94ED1C0E9402
:100870009C02EE2009F482C10E949F0B80FD7EC184
:10088000F60112820E94990B0E94DC06C6010E94AA
:10089000DF050E94990BDF91CF911F910F91FF907F
:1008A000EF90DF90CF90BF900C94FD06112389F05C
:1008B000F11006C00E94DD0B802B0E948803D0CF70
:1008C000F1E0FF12F7CF0E94DD0B802B0E94E30BBB
:1008D000C7CFF11006C00E94F00B802F0E948F033B
:1008E000BFCF21E0F21609F4BBCFF5CF112331F0D1
:1008F00035E03F1508F4B4CF802FDFCF84E08F15AB
:1009000008F4AECFEACFFF2041F3D93349F4FFEF2B
:1009100027EE33E0F15020403040E1F700C0000006
:100920008D2F0E943A039CCF8C2F869586958370DD
:1009300069F0813009F094CF8D2F9C2F93701111A5
:1009400002C090E080E00E942F1D8ACF8D2F9C2F47
:100950009370111102C090E080E00E94191D80CFB9
:100960008D2F112329F00E9439150E940C1678CF83
:100970000E949315FACF8C2F837009F041C011119A
:100980006FCF4D2F429546954770440F440F0D2F62
:100990000F7010E030E020E0042E04C0000F111FA3
:1009A000221F331F0A94D2F760E070E0CB01D4FF1E
:1009B0000FC06FE070E080E090E004C0660F771F2A
:1009C000881F991F4A95D2F76095709580959095EC
:1009D000C695C695C370602B712B822B932BC230AA
:1009E00049F058F4C13019F00E948E0639CF0E94A8
:1009F0007C0636CF0E94A00633CF0E947A0630CF05
:100A00008695112311F08C2F8170882309F428CF4B
:100A10004D2F429546954770440F440F0D2F0F7090
:100A200010E030E020E0042E04C0000F111F221F50
:100A3000331F0A94D2F760E070E0CB01D4FF0FC0FF
:100A40006FE070E080E090E004C0660F771F881FC1
:100A5000991F4A95D2F76095709580959095C695A7
:100A6000C695C370602B712B822B932BC23049F03B
:100A700058F4C13019F00E945307F2CE0E9441078A
:100A8000EFCE0E946507ECCE0E94B606E9CECF708D
:100A9000112329F08C2F0E94DC068D2F0ECF8D2F75
:100AA0000E948F038C2F0E94FD06DACED23F51F1B7
:100AB00060F4D03FB9F0D13F81F0112309F449C06F
:100AC000F11083CE8C2F8F7121C0D33F11F1D43F11
:100AD000A1F78091960282FF26C08C2F8F7111237F
:100AE00011F314C0112349F084E08F1508F4B8CE37
:100AF0008C2F8F710E942007B3CE95E09F1508F4CC
:100B0000AFCEF6CF8C2F8F711111CDCF0E94DC06A6
:100B1000A7CE112329F08C2F8F710E94C706A0CE7B
:100B20000E94C2069DCE112349F0CF718C2F0E94E6
:100B3000DC0663E08C2F0E94300C92CE81E00E9494
:100B40004B0CE1E0EF1508F08BCE82E00E944B0CDD
:100B500087CEF110DACE8C2F8F71A5CF4C2F4F702E
:100B60006D2FC6010E94170E0E943F0879CE4C2FB0
:100B70004F706D2FC6010E941A0E72CEDF91CF9179
:100B80001F910F91FF90EF90DF90CF90BF9008954D
:100B90000F931F93CF93DF93EC01688179818A8152
:100BA0000E941B088C010E9477070E947906B801F9
:100BB000CE01DF91CF911F910F910C949603CF93AB
:100BC000DF93EC018B819C81892B29F088819981AD
:100BD00089238F3F59F4DF91CF910895CE010E9470
:100BE000C805CE01DF91CF910C940E02CE010E9478
:100BF0003A028111F3CF0E94A30B882361F38A810B
:100C0000882349F38091960282FDE5CF82E0DF914F
:100C1000CF910C944B0C90E080E00E94191D90E065
:100C200080E00E942F1D0E94CA0B0E94DA0B0E94D6
:100C3000FA0B0E9433170C940C160E94930B0C9421
:100C40000B060E94BA0B0C941D06E92FE295EF707B
:100C5000E250EE3070F4F0E0E85EF94D0C9494252B
:100C6000803F19F020F4883E20F481E00895843F0D
:100C7000E1F380E00895883EC0F3813FD1F7F5CFDE
:100C800093FB882780F90895FC01808191810E945F
:100C900011080C942506CF93DF9300D000D00F925B
:100CA000CDB7DEB70F900F900F900F900F90DF91A0
:100CB000CF910895CF93DF9300D000D000D0CDB76F
:100CC000DEB726960FB6F894DEBF0FBECDBFDF911C
:100CD000CF91089508950C946A060E946B06609364
:100CE000E2017093E3018093E4019093E5010C9499
:100CF0000B0608950C946D060F931F930091E2016B
:100D00001091E3012091E4013091E501602B712BFA
:100D1000822B932B1F910F910C946D060F931F93B1
:100D20000091E2011091E3012091E4013091E5018D
:100D300060237123822393231F910F910C946D06DE
:100D40000F931F930091E2011091E3012091E401C0
:100D50003091E50160277127822793271F910F911A
:100D60000C946D060C946A060C94B2060E94B406AC
:100D70006093DE017093DF018093E0019093E101C5
:100D80000C940B0660E070E0CB010C94B6060F9358
:100D90001F9341E050E060E070E08A019B0104C0D5
:100DA000000F111F221F331F8A95D2F7C901B80106
:100DB0001F910F910C94B6060F931F9341E050E0E2
:100DC00060E070E004C0440F551F661F771F8A95CE
:100DD000D2F78091DE019091DF01A091E001B09106
:100DE000E1018A019B01082B192B2A2B3B2BC901FE
:100DF000B8011F910F910C94B6060F931F9341E019
:100E000050E060E070E004C0440F551F661F771F7C
:100E10008A95D2F7CB01BA0160957095809590952F
:100E20000091DE011091DF012091E0013091E1019C
:100E300060237123822393231F910F910C94B60694
:100E40000F931F9341E050E060E070E004C0440F56
:100E5000551F661F771F8A95D2F78091DE0190910A
:100E6000DF01A091E001B091E1018A019B01082717
:100E700019272A273B27C901B8011F910F910C940C
:100E8000B6060F931F930091DE011091DF012091B0
:100E9000E0013091E101602B712B822B932B1F918C
:100EA0000F910C94B6060F931F930091DE011091E1
:100EB000DF012091E0013091E10160237123822361
:100EC00093231F910F910C94B6060F931F930091DB
:100ED000DE011091DF012091E0013091E1016027F6
:100EE0007127822793271F910F910C94B6060895BE
:100EF000E92FEE0FE90FEE0F8E0F982F977041E05C
:100F000001C0440F9A95EAF786958695869595E0F7
:100F1000899FF0011124EF54FE4F30E020E070E093
:100F20005191DF011197CB01022E02C09695879552
:100F30000A94E2F7817081958527842385278C9315
:100F40002F5F3F4F2530310559F70895E92FEE0FF8
:100F5000E90FEE0F8E0F982F9770869586958695E0
:100F600025E0829FF0011124EF54FE4F50E040E055
:100F700080E0219130E0092E02C0369527950A9431
:100F8000E2F721703327042E01C0220F0A94EAF7FA
:100F9000822B4F5F5F4F4530510559F70895BF923F
:100FA000CF92DF92EF92FF920F931F93CF93DF9335
:100FB0008C01C090DE01D090DF01E090E001F09064
:100FC000E1018091E2019091E301A091E401B091EF
:100FD000E501C82AD92AEA2AFB2ACFE1D0E0BC2EB3
:100FE000D701C6010C2E04C0B695A7959795879595
:100FF0000A94D2F780FD0EC0219788F7B12C8B2D73
:10100000DF91CF911F910F91FF90EF90DF90CF90E4
:10101000BF900895B8018C2F0E944A0F019761F389
:10102000EECFCF93DF93EC010E94CF07BE01DF919B
:10103000CF910C944A0F1F93CF93DF93EB019091C4
:10104000B001992331F0CB01DF91CF911F910C9426
:101050001108882379F0CB010E94CF07182F682F41
:10106000CE010E947807BE01812FDF91CF911F91A1
:101070000C944A0FCB010E94A607182FF4CFEF92D1
:10108000FF920F931F93CF93DF938C01892B81F0F5
:10109000F12CEE24E394E8012196F8018491843741
:1010A00070F4843008F05FC08130B1F08230A1F17B
:1010B000DF91CF911F910F91FF90EF9008958537A9
:1010C00009F44CC008F43DC09CE7980F903780F7B6
:1010D0008F770E943A0349C00E5F1F4FFE01849133
:1010E00090E2980F983060F48770FE2D01C0FF0FDA
:1010F0008A95EAF78F2F0E94CD0B0E94FA0B02C04F
:101100000E94E7028F2D815030F2EFE9FFE0319726
:10111000F1F700C00000F7CF0E5F1F4FFE01849172
:1011200090E2980F983050F48770FE2D01C0FF0FA9
:101130008A95EAF78F2F0E94D30BDFCF0E943A03E4
:10114000E1CF0E5F1F4FFE01C491C150D8F28FE96D
:101150009FE00197F1F700C00000F7CF0E5F1F4F2F
:10116000FE01F490CFCF0E94E7028E01CBCF1F93F8
:10117000CF93DF93C091E60116E08091E7018C13D5
:1011800004C0DF91CF911F910895D0E01C9FF00122
:101190001D9FF00D1124E851FE4F40815181628165
:1011A0007381848195810E945A062196C770E5CF8C
:1011B000409118025091190260911A0270911B021D
:1011C00080911C0290911D020C945A06FF920F937D
:1011D0001F93CF93DF9380911D02807FD1F4809184
:1011E0001A028823B1F08091E6011091E701609125
:1011F000180270911902A0911B02B0911C02062FD7
:101200000723C0910001D091010196E0F92E181337
:1012100006C0DF91CF911F910F91FF90089590E04C
:10122000109711F00F3F19F401968770F0CFF89ED8
:101230009001F99E300D1124F901E851FE4F4181D2
:101240004713F2CF40814613EFCF42814111ECCFDB
:10125000438154814A1B5B0B4C175D0728F7809133
:101260001D028F70806180931D02F901E351FE4FD2
:1012700080818F708061808388E192E00E94DF0529
:10128000DF91CF911F910F91FF900C94B708AF920F
:10129000BF92CF92DF92EF92FF920F931F93CF9363
:1012A000DF93CDB7DEB761970FB6F894DEBF0FBE00
:1012B000CDBF8C0185E0F801DE011D9601900D92F5
:1012C0008A95E1F7F801E28088E1C82E82E0D82E05
:1012D00060911B0270911C026115710509F45FC1D8
:1012E0009091180220911902892F82238F3F09F4CF
:1012F00056C140815181A380B480F0901A02F5015B
:10130000E61BF70BBF01E0910001F0910101FF2006
:1013100009F4F6C080911D02382F307F6E177F07C9
:1013200008F0AFC0311179C0FE2C251323C09413EF
:1013300021C0E1101FC08F70806180931D020E9448
:10134000D808C6010E94DF0580911D02F80185833F
:101350008F2D61960FB6F894DEBF0FBECDBFDF9123
:10136000CF911F910F91FF90EF90DF90CF90BF90A2
:10137000AF900895AB2829F0842F85238F3F09F083
:1013800027C180E0F82FF170DF2E80FF3CC08091F4
:10139000E6012091E70136E0821315C04D875E8794
:1013A0008D859E850E941108292F22952F7022304D
:1013B000F0F0243018F59F70F1F0F8019581907FDE
:1013C000D1F4D12C1EC090E0389FF001399FF00D70
:1013D0001124E851FE4F6181651306C060816413DA
:1013E00003C062816E110FC001968770D5CF9F70C8
:1013F00011F0882331F3805E883018F3C8010E9411
:10140000DF05FD2CA5CFEE2009F4A2CF80911D02AF
:10141000816080931D02F12C9BCF251306C094138D
:1014200004C0F801EE2009F487C0C8010E944406F8
:10143000882319F1EE2009F180911D02803270F0AD
:10144000209118023091190238872F831986BB86A4
:10145000AA868C87CE0107960E94DF0586E0F801F8
:10146000A8E1B2E001900D928A95E1F70E94E608AA
:101470000E94D808FF24F3946BCFC8010E94DF05B7
:10148000F9CF311113C07A2DB98AA88A6E2D8989B6
:101490000E944B0688E192E00E94DF0586E0F6019B
:1014A00011928A95E9F70E94D808B5CF25130FC08D
:1014B00094130DC0E1100BC0F8018583C8010E9490
:1014C000DF0586E0F60111928A95E9F741CFC80160
:1014D0000E944406882389F2EE2079F280911D0251
:1014E000803208F4BBCF20911802309119023A8360
:1014F00029831B82BD82AC828E83CE010196ACCF44
:101500006E177F0708F03EC0FE2CEE2009F4B5CF21
:1015100025132AC0941328C080911D0280FD1BC092
:10152000982F907FC1F0F8018583903F31F0982F7C
:10153000907F905F8F70892B8583C8010E94DF05A3
:1015400086E0F801A8E1B2E001900D928A95E1F7FA
:101550000E94D808FDCE86E0F801A8E1B2E0019033
:101560000D928A95E1F7F4CEC8010E9444068111DC
:1015700075CF80911D02816080931D02C8010E9479
:10158000DF05E6CE7A2DB98AA88A6E2D89890E9458
:101590004B0686E0F60111928A95E9F7D9CFEE2045
:1015A00009F46BCFC8010E944406F82E882309F481
:1015B00064CF86E0F801A8E1B2E001900D928A952F
:1015C000E1F788E192E00E94E2020E94E608C0CFC3
:1015D00081E08E25D7CE1F93CF93DF93CDB7DEB7B3
:1015E0002C970FB6F894DEBF0FBECDBF4F83588740
:1015F00069877A878B879C87CE0107960E94470967
:10160000882369F08A859B85892B39F04F8158851D
:10161000842F85238F3F09F071C016E05FC086E0FC
:10162000FE013796DE01119601900D928A95E1F741
:101630008A859B85892B89F38F81988589238F3FA4
:1016400061F32091E70130E0C90101968770992785
:101650004091E6014817190671F40E942106109284
:10166000E7011092E60186E0E8E1F2E0DF011D9279
:101670008A95E9F7D2CF96E0929FD001939FB00D63
:101680001124A851BE4FFE01319601900D929A95FA
:10169000E1F78093E7010E94B708BFCF819FC001A7
:1016A000112488519E4F0E9447098823E9F0E09158
:1016B000E6011E9FF0011124E851FE4F4081518147
:1016C00062817381848195810E945A068091E6012E
:1016D00090E00196877099278093E6018091E6015A
:1016E0009091E7018913DACF2C960FB6F894DEBFFC
:1016F0000FBECDBFDF91CF911F91089569857A8587
:101700008B859C850E945A0688CF682F80910201A4
:10171000909103010C948D1D682F8091020190918E
:1017200003010C948F1D80910201909103010C9490
:10173000911D80911E0285958595859508958091CE
:101740001E028770089590911E02977081E009F43F
:1017500080E0089580912A02089590912A02892BB1
:1017600080932A020895809590912A02982390935D
:101770002A02089510922A02089590912902892B35
:10178000809329020895809590912902982390933F
:101790002902089510922902089590912802892B18
:1017A0008093280208958095909128029823909321
:1017B0002802089510922802089580911F0208952A
:1017C00008950C94E00B9091960292FD08C09091C0
:1017D0001F02981721F080931F020C94E10B0895CB
:1017E00080911F02882329F010921F0280E00C9440
:1017F000E10B0895E0910201F091030180912A022A
:101800008083E0910201F09103018081909129028F
:10181000892B8083E0910201F091030180819091F6
:101820002802892B808390911F02992381F0E091F7
:101830000201F09103018081892B80838091020154
:10184000909103010E94451D81110E94F00B80912F
:101850000201909103010C94001D08950C942D0C2D
:101860009091960292FD10C098E0899F90011124FA
:10187000622B60931E020E94DC0680911E028595F9
:10188000859585950C942E0C0C94DC0610921E0206
:1018900080E00C942E0C90911E02809589238093F9
:1018A0001E02282F277091F4282F082E000C330BCE
:1018B0009217130659F09091960292FD07C08595F4
:1018C000859585950E94FD060C94460C089590918F
:1018D000960292FB222720F9281769F080FB92F9E3
:1018E0009093960280919502909196020E94B20C7C
:1018F00082E00C944B0C08958091960282FB88271D
:1019000080F991E089270C94670C81E00C94670CB6
:1019100080E00C94670C6FEF7FEF90E080E00C9418
:10192000F02590E080E00E94CC2521E0893E9E4F8A
:1019300009F020E0822F089582E090E00C94C42505
:1019400083E090E00C94C425CF9384E090E00E9463
:10195000C425C82F82E290E00E94C425982F8C2FC6
:10196000CF910895CF93C92F682F84E090E00E9413
:10197000D2256C2F82E290E0CF910C94D225AB015E
:10198000BC018FE090E00C94E425AB01BC0183E145
:1019900090E00C94E42560E070E0CB010C94C50C61
:1019A00060E070E0CB010E94BF0C0C94CB0C69EEA0
:1019B0007EEF90E080E00E94F02560E082E090E021
:1019C0000E94D22560E083E090E00E94D225109230
:1019D000E2011092E3011092E4011092E50160E04F
:1019E00084E090E00E94D22560E082E290E00E94D4
:1019F000D22560E085E090E00E94D22560E086E09C
:101A000090E00E94D2256FEF87E090E00E94D225FF
:101A100040E050E0BA0188E090E00E94E42560E0F8
:101A20008DE090E00E94D22540E050E0BA0188E1CC
:101A300090E00E94E42560E087E190E00E94D225DA
:101A400040E050E0BA018CE190E00E94E42570E0B3
:101A500060E080E290E00E94F02540E050E0BA01B2
:101A600088E190E00E94E4250C94D00C0C94D70CF3
:101A7000682F8EE090E00C94D2250E94341E609373
:101A80003C0270933D0280933E0290933F0260932C
:101A900038027093390280933A0290933B02089582
:101AA00085B7806885BF85B7806885BF089508952C
:101AB00008950C94570D08950C945B0D0E94500DE1
:101AC00089E690E10E94E31C0E94580D0C94590D88
:101AD0000C947012089508950E946A0D0C946B0D79
:101AE0000E941F1E0E9428100E9457110E94411739
:101AF0000C945C0DAF92BF92CF92DF92EF92FF9267
:101B00000F931F93CF93DF93CDB7DEB72A970FB60E
:101B1000F894DEBF0FBECDBF0E94E61181110E9476
:101B20003D0D8CE2A82E82E0B82E10E000E0C02E21
:101B3000802F0E94AE10E82EF501F1905F01F8169B
:101B400009F44DC08091400281FD0E94B4108F2D98
:101B50008E25D12CFF24F394982F9F21D9F10E9438
:101B6000680D882399F0DE82CF82EF2081E009F4AE
:101B700080E088870E94281E8160782F9A87898755
:101B80004E815F8168858A850E94A402F801E45D28
:101B9000FD4F8081F826F0820E9427160E94ED1CDE
:101BA00090912B02891791F10E94ED1C80932B02DA
:101BB0002A960FB6F894DEBF0FBECDBFDF91CF914E
:101BC0001F910F91FF90EF90DF90CF90BF90AF905B
:101BD0000C949C02D394FF0CF6E0DF12BDCF0F5F94
:101BE0001F4F0C30110509F0A2CF8FEF89838A8334
:101BF0001B820E94281E8160782F9D838C834981DF
:101C00005A816B818D810E94A402C6CF2A960FB69D
:101C1000F894DEBF0FBECDBFDF91CF911F910F9122
:101C2000FF90EF90DF90CF90BF90AF90089590E03D
:101C300080E008950895972F70E026E0929F600D50
:101C4000711D1124FB0198E4899FE00DF11D112401
:101C5000EE0FFF1FE455FF4F859194910895FC010D
:101C6000EE0FFF1FE453FE4F859194910895CF939B
:101C7000DF930E944E0FEC01811520E5920708F0DA
:101C800042C0811530E4930708F0BDC0883E91053D
:101C900028F5803E910508F09DC0883A910588F4AA
:101CA000853A910508F08FC08130910509F492C002
:101CB000009709F48FC0049708F08CC0D0E0C0E012
:101CC00089C08F3B910508F489C0805C9109C03CB4
:101CD000D105A0F30E942F0EEC017CC0811590422B
:101CE00050F4C11581E0D80708F074C0CD3ED1058D
:101CF00028F3D0656FC0C11590E3D90708F079C00B
:101D0000CE019F70E7CF811525E5920758F5811523
:101D100034E5930708F0A6C0811542E5940750F416
:101D2000C11581E5D80708F471C0DC2FCC27C16F3D
:101D3000D06A50C0982F969596959E0123703327B0
:101D4000C115D34508F07FC0C1E0D0E002C0CC0F80
:101D5000DD1F2A95E2F720E2929FC0011124C82BD3
:101D6000D92B6FC0C11589E5D807A8F4C11598E52E
:101D7000D90708F07CC0C11526E5D20708F09ECF30
:101D80008C2F0E94E50FC82FD0E0DC2FCC27CC276A
:101D9000DF71D0621FC0C1153AE5D30708F46CC0EB
:101DA000CE0190568115904208F088CF8D2F8F710B
:101DB0000E94E50F90E0982F882788279F719C014B
:101DC0002C2BE901E6CFC55AD0E0C956DE4FC881B9
:101DD000D0E0D064CE01DF91CF910895C85AD0E011
:101DE000CC0FDD1FC759DE4F0990D881C02DD464B8
:101DF000F1CFCE019927D3FF03C0EC01D86CEACF15
:101E0000EC01D06CE7CFDF70D06AE4CFCE01E4E024
:101E100096958795EA95E1F783702C2F2695269560
:101E2000237090E2299F90011124382B8C2F83700E
:101E3000C1E0D0E002C0CC0FDD1F8A95E2F7C22BD3
:101E4000D32BDC68C7CFC1E0D0E002C0CC0FDD1FD0
:101E50002A95E2F730E2939FC0011124C82BD92BB9
:101E6000DA68B8CFD82FCC27C46FD06AB3CFDC2FB5
:101E7000CC27C06FD06AAECF8C2F8F700E94E50F39
:101E800034E0D695C7953A95E1F7CF709C2FEC01D9
:101E9000D069A0CF0E941B0E0C94370E823891059A
:101EA000B1F1B0F48133910509F475C048F4893279
:101EB000910509F469C08A32910509F473C0089547
:101EC0008533910509F459C08933910501F10895CD
:101ED000833E9105A9F138F4803E9105F9F0823EE8
:101EE000910549F10895863E9105A9F1873E910536
:101EF000C9F1843E910519F52091960221FF1FC07A
:101F00008091950284FD14C087EE90E008952091A1
:101F100095022370A1F080EE90E008952091950243
:101F200020FD47C03091960230FF09C024FF44C015
:101F300090E080E004C02091950222FDF7CF089543
:101F40002091950222FD3BC03091960230FDE3CFF7
:101F500024FFF5CFEDCF2091950223FFF0CF24FD94
:101F6000E7CFD2CF2091950223FD2CC0309196026D
:101F700031FFEECF84EE90E008952091950225FF89
:101F8000DECF89E290E008952091950225FFD7CF1A
:101F900085E390E008952091950226FFD0CF8AE254
:101FA00090E008952091950226FFC9CF81E390E04B
:101FB000089589E390E0089583EE90E0089582EE1D
:101FC00090E0089586EE90E008959091950292FF3A
:101FD00006C0282F28712830F9F4877F846093FF8A
:101FE00006C0282F28712831F1F4877E8461209162
:101FF000960220FF06C0382F38713830D9F4877F19
:10200000816021FF06C0282F28712831D1F4877EF6
:10201000816194FD877E0895282F24712430F9F67C
:102020008B7F8860DCCF282F2471243101F78B7ED1
:102030008861DDCF382F3171313019F78E7F88609C
:10204000E0CF282F2171213121F78E7E8861E1CFE9
:1020500010929102109292021092930210929402A6
:102060000895CF92DF92EF92FF926B017C010E9464
:10207000701281110EC00E94341EC61AD70AE80AD7
:10208000F90AC0929102D0929202E0929302F092E9
:102090009402FF90EF90DF90CF9008950F931F93DD
:1020A0000E947012882321F01F910F910C94341E0E
:1020B0000E94341E0091910210919202209193028D
:1020C00030919402600F711F821F931F1F910F9117
:1020D000089580E008950C948B0C0E94E6112FEF78
:1020E00086E791E0215080409040E1F700C0000079
:1020F0000E94E61180E00E94AE1080FF04C00E94A2
:102100006B100C948F1E08950C946D100E94910C0E
:10211000811102C00E94360D0E949C0C80934002E7
:102120000E94A40C90939602809395020E948410C2
:102130000E94A00C682F70E090E080E00E947A0678
:102140006091DE017091DF018091E0019091E101E9
:102150000C94B406089508950C94AB10E82FF0E0A9
:10216000ED55FD4F80810895089580EA8A95F1F735
:10217000089500C008950C94B510F894E82FE295E6
:10218000EF70F0E031A1282F2F7081E090E001C0C6
:10219000880F2A95EAF7982F9095932391A392A1FF
:1021A000892B82A37894089508950C94D410CF932A
:1021B000DF93C0EAD1E089918F3F11F00E94BD10FA
:1021C00081E0C63AD807B9F7CAE9D1E089918F3FD3
:1021D00011F00E94BD1081E0C03AD807B9F7DF9135
:1021E000CF910895CF92DF92EF92FF920F931F93BA
:1021F000CF93DF93EC01D62E062F10E0C801805656
:102200009E4F7C01FC0180818F3F09F445C0F8940A
:10221000E82FE295EF70F0E091A18F7021E030E0BF
:1022200001C0220F8A95EAF7892F822B81A382A110
:102230002095282322A378940E94B910EAE9F1E0BE
:1022400040EA51E031E0C12C21912F3F71F1A22FE2
:10225000A295AF70B0E090968C9190E02F7002C084
:10226000959587952A95E2F780FD1FC0832FC82A90
:10227000330F4E175F0741F7F70180818F3F11F051
:102280000E94BD1061E0C11001C060E08D2D0E9470
:10229000BB10C00FD11FC882DF91CF911F910F914A
:1022A000FF90EF90DF90CF90089580E0E0CF0E9404
:1022B0008A12809104018091040196E0811190E0DE
:1022C0009093B00286E0891B8093AF020E94D710E2
:1022D0008CE0E3EAF2E0DF01982F1D929A95E9F78E
:1022E000E7E9F2E0DF011D928A95E9F786E00E94B6
:1022F00039120E9419020C949412EF92FF920F93DC
:102300001F93CF93DF9300D000D000D0CDB7DEB7BE
:102310000E947012F82E6091B002882309F449C01F
:1023200086E0E82E8E010F5F1F4FF8018E2D11926F
:102330008A95E9F7862F90E0B8018D559D4F0E9450
:10234000A212882301F18091AF0290E046E050E0B4
:10235000B8018D559D4F0E94AE2521E0209341028A
:10236000892BD9F4F12C0E941F028F2D26960FB6CF
:10237000F894DEBF0FBECDBFDF91CF911F910F91BB
:10238000FF90EF90089580914102882359F3F8015E
:102390001192EA94E9F710924102A091AF02B0E0E5
:1023A000AD55BD4F86E0F80101900D928A95E1F799
:1023B000DACF70E06D557D4F8091AF0290E08D5582
:1023C0009D4F0E942F130E94D510CFCFEF92FF9206
:1023D0000F931F93CF93DF93CDB7DEB72C970FB634
:1023E000F894DEBF0FBECDBF8E010F5F1F4F8CE094
:1023F000F80111928A95E9F7F12C6F2DC8010E941E
:10240000F210F394F6E0FF12F8CF4CE050E0B80180
:1024100087E992E00E94AE257C0121E0892B09F436
:1024200020E0E114F10441F08CE0F801A7E9B2E00A
:1024300001900D928A95E1F76091B00270E06D55C0
:102440007D4F46E087E992E00E943A1281E090E0F9
:10245000EF2811F40E947D112C960FB6F894DEBF80
:102460000FBECDBFDF91CF911F910F91FF90EF90E5
:1024700008950895FF920F931F93CF93DF93F82E43
:10248000092F162FD72FC42F222349F081E08093E4
:1024900044020E94281E909343028093420280913E
:1024A00044028823A1F080914202909143020E944D
:1024B000401E059760F0EF2DF02FA12FBD2FCE0FFE
:1024C000DF2FD11DEC17FD0741F410924402DF917C
:1024D000CF911F910F91FF90089581918D93F2CF2D
:1024E00080914702811107C00E947325882351F013
:1024F00081E08093470281E090914702913009F09A
:1025000080E0089582E0809347020E946E25F3CF19
:102510000C9470120E948812809304010E94701221
:1025200081110C94D81208950E947012811102C07A
:102530000C94DA12089581E0909148029A3008F0E4
:1025400080E008950F931F93CF93DF93EC018B01ED
:10255000809148028A30B8F4B801CE010E942D1350
:10256000C82F811122C0809148028F3FB9F40E9488
:10257000281E90934602809345028C2FDF91CF91C5
:102580001F910F91089580914502909146020E94FB
:10259000401E843F914000F7C0E0EFCF8F5F8093F3
:1025A00048028A3020F7C1E0E8CF10924802E5CF18
:1025B0000C94221B0C94251BEF92FF920F931F93F8
:1025C000CF93DF937901C82F880FDD0B411551059B
:1025D000A9F08AE08C9FF0018D9FF00D1124EB5F34
:1025E000FE4F83819481875B9D4F228130E04217AB
:1025F000530708F49A01A9010E94BB25CE010E944D
:102600002F1C892B11F501151105E9F08AE08C9F2B
:10261000F0018D9FF00D1124EB5FFE4F458150E0DE
:102620000417150708F4A8018AE08C9FF0018D9F1C
:10263000F00D1124EB5FFE4F66817781675B7D4F64
:10264000C7010E94BB2581E001C080E0DF91CF91EE
:102650001F910F91FF90EF9008950C9447140C94E4
:1026600063140F931F93CF93DF9300D000D0CDB7A7
:10267000DEB7609162027091630280916402909172
:1026800065020E944F1E11E06436710581059105B7
:1026900018F10E944E106E5F7F4F8F4F9F4F6983DE
:1026A0007A838B839C8310E000E030E020E044E0FC
:1026B00050E0BE016F5F7F4F82E00E94DC12182F56
:1026C000882351F00E94341E60936202709363026B
:1026D0008093640290936502812F0F900F900F906A
:1026E0000F90DF91CF911F910F910895AF92BF92FC
:1026F000CF92DF92EF92FF920F931F93CF93DF93CE
:1027000000D000D000D00F92CDB7DEB77B01C090D3
:10271000AC01D090AD0101E010E09E01295F3F4F78
:1027200050E040E070E060E080E00E94DC12182F92
:10273000882309F448C056018FEFA81AB80A60919F
:102740005E0270915F0280916002909161020E942E
:102750004F1E643671058105910568F106E010E0B1
:102760009E012F5F3F4F50E040E070E060E081E06D
:102770000E94DC12D82E66E070E0C5010E9442176C
:1027800011E09F81981310E01D2141F10E94341E39
:1027900060935E0270935F02809360029093610287
:1027A00086E0FE013196A8E5B2E001900D928A958F
:1027B000E1F711E013C066E070E0C5010E94421726
:1027C0009F818913CBCF86E0F6013196DE01119609
:1027D00001900D928A95E1F71111E2CF86E0E8E5CC
:1027E000F2E0D70101900D928A95E1F7812F2796AB
:1027F0000FB6F894DEBF0FBECDBFDF91CF911F9112
:102800000F91FF90EF90DF90CF90BF90AF90089521
:10281000AF92BF92CF92DF92EF92FF920F931F93EE
:10282000CF93DF937C015B016A010E949B1201E060
:1028300010E0882311F00AE010E0C1E0D0E0F89445
:10284000B501C701F60109957894811104C021965C
:102850000C171D075CF4DF91CF911F910F91FF9032
:10286000EF90DF90CF90BF90AF900895CC9F9001F4
:10287000CD9F300D300D112490E080E045E34A9566
:10288000F1F70000019682179307C1F7D8CF0F9395
:102890001F93CF93DF93EC018B0146E753E10E9436
:1028A0000814882351F041E353E1B801CE01DF91D0
:1028B000CF911F910F910C94081480E0DF91CF917C
:1028C0001F910F9108950F931F93CF93DF93F89467
:1028D000C091AC01D091AD01CE01019626E0FB0183
:1028E000DC0101900D922A95E1F766E070E00E940C
:1028F000421788837894F8946F81788589859A85C2
:1029000000915402109155022091560230915702C5
:10291000601771078207930751F060935402709318
:10292000550280935602909357020E94311078947A
:10293000DF91CF911F910F9108950E9442200E9434
:10294000700D0C944E200E9452200E947A0D0C941F
:102950006C200E94B21D0E9429200E945E0D0E94E0
:102960009D140E94A3140E946C0DFBCF80916C02F9
:1029700080FF12C06091280185E0689FB00111249A
:10298000759567957595679560387105A8F561151A
:102990007105A1F1862F089581FF09C0609128017A
:1029A00085E0689FB001112475956795EDCF609122
:1029B000280182FD0AC080916B028823D1F090919A
:1029C000270160912801891728F085E0689FB001F0
:1029D0001124DACF869FB001112485E0869F9001F3
:1029E000879F300D1124692F70E0C9010E94802556
:1029F000CBCF65E070E0CECF8FE7089581E00895FA
:102A000080916C0280FF0CC06091240170E075958C
:102A10006795759567956115710549F1862F08953C
:102A200081FF06C06091240170E075956795F3CF32
:102A30006091240182FD0BC090916A029923A1F05C
:102A40006091230180912401961738F0682F70E07F
:102A50006038710500F38FE70895899FC001112444
:102A600070E00E948025F4CF61E070E0D7CF81E074
:102A700008958D3E31F40E94B614819580937002C2
:102A800008958E3E19F40E94B614F8CF8F3E31F4AB
:102A90000E94B614819580936F020895803F19F4C7
:102AA0000E94B614F8CF893F29F40E940015809344
:102AB000710208958A3F21F40E9400158195F7CF95
:102AC0008B3F31F40E940015819580937202089526
:102AD0008C3F19F40E940015F8CF9FE0980F9830B2
:102AE00070F4815F990B21E030E001C0220F8A95DC
:102AF000EAF780916E02822B80936E0208958D3FDB
:102B000031F480916C02816080936C0208958E3F55
:102B100021F480916C028260F7CF8F3FB9F78091EA
:102B20006C028460F1CF40916F028D3E59F4809128
:102B3000700287FF0DC01092700241110BC01092FD
:102B40006B0208C08E3E81F48091700218169CF3CF
:102B5000442381F08091710290917202892B09F0D7
:102B60005AC010926A0208958F3E49F447FFF0CF91
:102B700010926F02809170028111ECCFE0CF803F04
:102B800019F41416ACF3E4CF90917102893F29F443
:102B90001916F4F610927102DBCF8A3F19F497FFF1
:102BA000D7CFF8CF909172028B3F29F497FFD0CF07
:102BB00010927202CDCF8C3F19F41916CCF3C8CF06
:102BC0009FE0980F983090F4815F990B21E030E0FE
:102BD000B90102C0660F771F8A95E2F7CB01809595
:102BE00090916E02892380936E02B2CF8D3F31F4B3
:102BF00080916C028E7F80936C02AACF8E3F21F46D
:102C000080916C028D7FF7CF8F3F09F0A1CF80912B
:102C10006C028B7FF0CF08950E94281E9C0190913A
:102C20006F0280917002982B21F0309369022093FB
:102C300068029091710280917202982B21F030937A
:102C40006702209366028DE692E00C940B1DEF92D2
:102C5000FF920F931F93CF93DF9300D000D000D04B
:102C6000CDB7DEB786E0EDE6F2E0DE011196019029
:102C70000D928A95E1F7E0906F02F090700200915A
:102C800071021091720210926F02109270021092F3
:102C90007102109272028E2D8F2991F0809168023C
:102CA000909169020E94401EAC0190916B029923A1
:102CB00009F43FC0809129018417150608F447C024
:102CC000802F812B91F080916602909167020E9483
:102CD000401EAC0190916A02992309F477C080915B
:102CE00025018417150608F47FC080916F0290912A
:102CF0007002892B90917102892B90917202892B1D
:102D000011F00E940C1686E0FE013196ADE6B2E0AD
:102D100001900D928A95E1F726960FB6F894DEBFE2
:102D20000FBECDBFDF91CF911F910F91FF90EF901C
:102D3000089520912A018AE0289F900111242417E8
:102D4000350708F0BDCF9F5F90936B0202C09F3F95
:102D5000D1F7EE2059F00E94B6149FEF1E140CF428
:102D600091E0899F802D112480936F02FF2059F0FC
:102D70000E94B6149FEF1F140CF491E0899F802DE0
:102D800011248093700230916F02332309F498CF9D
:102D900020917002222309F493CF45EB3403C00144
:102DA0001124992359F090936F0245EB240390016D
:102DB0001124332339F03093700282CF81E0809365
:102DC0006F02F3CF81E0809370027ACF20912601C9
:102DD0008AE0289F900111242417350708F085CF39
:102DE0009F5F90936A0202C09F3FD1F7002359F082
:102DF0000E9400159FEF10160CF491E0899F802D22
:102E0000112480937102112359F00E9400159FEF45
:102E100011160CF491E0899F802D11248093720289
:102E200030917102332309F460CF20917202222382
:102E300009F45BCF45EB3403C0011124992359F009
:102E40009093710245EB240390011124332339F050
:102E5000309372024ACF81E080937102F3CF81E018
:102E60008093720242CF86E0EDE6F2E0DF011D9230
:102E70008A95E9F710926B0210926A0210926C0226
:102E800008950895FC01680F791F8FEF91E36E1785
:102E90007F0709F408952191822728E030E087FF19
:102EA00006C0880F892721503109C9F7F0CF880F54
:102EB000FACFCF93DF93EC01FB018281882309F4E1
:102EC00020C1C430FDE5DF07C8F5CB3F9CE5D9073D
:102ED00030F49E0122503C452431310598F50E9482
:102EE000A40C9093960280939502C031FCE5DF0715
:102EF00009F4E0C008F061C0C8309CE5D90709F4C6
:102F0000CBC088F5C430FCE5DF0709F4B3C0E8F4B2
:102F1000C2309CE5D90709F4A7C080919502826070
:102F2000C330DC4509F4A3C08091950290919602CC
:102F30000E94B20C0E94210680E004C0C236EDE57A
:102F4000DE0769F2DF91CF9108958091950280614B
:102F5000C630FCE5DF0709F48AC008F48FC0809111
:102F60009502806284C0809195028D7FCC309CE573
:102F7000D90709F47CC070F4809195028C60CA3046
:102F8000FCE5DF0709F473C008F48AC0809195025C
:102F90008E7F6DC080919502877FCE309CE5D907EA
:102FA00009F465C0809195028B7FCF30DC4508F431
:102FB0005EC0809195028F7E5AC0CD3FFCE5DF0751
:102FC00009F474C040F5C4319CE5D90709F48AC0FE
:102FD00058F4C231FCE5DF0709F474C008F46EC090
:102FE00080919502837F43C0CB3F9CE5D90709F4CC
:102FF00049C008F04DC0C531DC4509F095CF80913E
:10300000950282FB992790F921E0922790FB82F9A3
:1030100090FB83F92CC0C1308DE5D80709F458C066
:1030200088F4809196028360CF3FECE5DE0769F17A
:10303000809196028D7FC115DD4538F18091960211
:103040008C7F23C0C3308DE5D80709F458C008F43D
:1030500052C0C236DD4509F067CF90919502892FA5
:103060008F7E94FF806103C0809195028160809380
:1030700095025ACF809195028460F9CF8091950294
:103080008860F5CF809196028160809396024CCF44
:10309000809196028260F9CF809195028064E7CF9B
:1030A0000E942106809195028068E1CF809196026E
:1030B0008E7FEBCF809195028F7DD9CF8091950245
:1030C0008F7BD5CF0E942106809195028F77CFCF3D
:1030D00080919602982F909591708E7F892B90FB0E
:1030E00081F9D3CF0E94210690919502892F97FBF9
:1030F00087F98058BCCF81E00E94380D15CF80E061
:10310000FBCF81E01FCF0F931F9341E050E060E0C1
:1031100070E08A019B0104C0000F111F221F331FA2
:103120008A95D2F7C901B8010E947A061F910F91C2
:103130000C9421068B3109F461C040F58B3071F09D
:1031400078F4863009F443C020F4853059F180E0EA
:103150000895873009F444C08830C9F781E00895A4
:10316000803109F459C068F48E3089F7909140029B
:10317000892F8B7F92FF84608093400282FD48C03C
:10318000EDCF863159F3893149F3E1CF8A32E1F04D
:1031900060F48732A9F020F48E31C8F28D5111C04D
:1031A0008932A9F60E942B02D9CF833438F48A33AE
:1031B000F0F5853329F0883389F2C9CF833439F6A5
:1031C00080E00E948318CACF0E94360DC7CF80913D
:1031D0004002807F8093400281E0809376020895D0
:1031E00090914002892F8E7F90FF816080934002F2
:1031F00080FDB4CF817F80934002B0CF9091400298
:10320000892F8D7F91FF82608093400281FFA6CF3E
:10321000809140028160EFCF90914002892F877F9B
:1032200093FF88608093400283FDF2CF97CF89534C
:10323000C8CF80E008950C941919CF93C82F8091BE
:1032400076028130B9F0882331F08230A1F11092FA
:10325000760280E00DC00E94AA0B8232D1F78C2F3B
:103260000E94191981111BC08C2F0E949A1881701D
:10327000CF9108950E94AA0B823289F38C2F0E946D
:103280001B1981110AC0C43199F060F4CB3029F0C8
:10329000C03169F782E08093760281E0E8CF81E077
:1032A00090E0E5CFC93221F0C833B9F380E0DFCF39
:1032B00010927602FBCFC93209F43FC0E8F4C43162
:1032C000E1F128F4C73009F45BC081E0D1CF82EE90
:1032D0008C0F8A30D0F7CD51C0937502C33009F4FA
:1032E00046C0B0F5C13009F43FC089E291E0C23078
:1032F000B1F110927502E9CFC03509F454C0B8F4A9
:103300008AE0CF3411F7E0917302F09174023097A4
:10331000E1F22081082E000C990B820F911D8F3F46
:10332000910509F00CF443C08FEF8083CECFC135F7
:10333000E1F181E0C23539F39BCF8091750288239A
:1033400021F2109275021092740210927302BDCF96
:10335000C53099F078F083E291E0C63051F6909351
:10336000740280937302B1CF8AE291E0F8CF88E2D1
:1033700091E0F5CF87E291E0F2CF84E291E0EFCFE8
:103380008EE180932A0182E3809329018AE0809371
:10339000280184E18093270188E08093240188E25A
:1033A0008093230192CF86EFAECF8FEFACCF97FF04
:1033B000BCCF10828ACFCF93DF93EB0186319C453F
:1033C00011F50E94AA0B9A81992399F08A7A91E0CB
:1033D00009F490E090937702811109C089E20E947C
:1033E000850B0E94FA0B80E0DF91CF91089585E371
:1033F000F6CF80917702811104C089E20E948C0B84
:10340000F0CF85E3FBCF81E0EFCF0F931F93CF93F6
:10341000DF93C42FD22FFC0182818823C9F040930F
:103420007A020E94281E909379028093780280E2AB
:103430008C0F883008F050C0C77081E001C0880F41
:10344000CA95EAF7DF91CF911F910F910C948803F1
:1034500010917A02141335C080917802909179020C
:103460000E94401E883C910560F5C0E2CD0F1D17FB
:10347000B9F080E2810F883040F4177081E001C01C
:10348000880F1A95EAF70E948F03C83048F481E04C
:103490009D2F977001C0880F9A95EAF70E948803C4
:1034A000802F0E948003C830B8F4D77081E001C03B
:1034B000880FDA95EAF7DF91CF911F910F910C9465
:1034C0008F0380E28C0F883038F4C77081E001C030
:1034D000880FCA95EAF7EFCFDF91CF911F910F9137
:1034E00008950F939C01CB01243F4CE5340759F11B
:1034F000A8F4293DFCE53F0701F12A3D4CE53407DE
:10350000D1F1283D3C4591F406E221EE41EE68ED13
:103510007CE50E94051A80E00F910895263FFCE5A6
:103520003F07E9F0B0F0273F3C45F9F0FC0182810C
:10353000882339F110927A02EFCF07E225EE45EEAB
:1035400069ED7CE5E6CF06E221EE40EE64EF7CE536
:10355000E0CF07E225EE44EE65EF7CE5DACF06E248
:1035600021EE42EE66EF7CE5D4CF07E225EE46EE93
:1035700067EF7CE5CECF08E221E045EE6AED7CE521
:10358000C8CF81E0C9CF8EE1489B02C08150E1F7EE
:10359000489BFECF0895589880E28A95F1F7589A93
:1035A0000895FC013BE03A95F1F798E020E080E0D7
:1035B00031E040E14A95F1F7880F489B02C08160F5
:1035C000232742E04A95F1F7000040E14A95F1F7E0
:1035D000915079F790E19A95F1F799B132E03A95E7
:1035E000F1F7000040E14A95F1F7917092272081B0
:1035F000920F90830895EF92FF920F931F93CF93B2
:10360000DF930F92CDB7DEB719828C017C01E60EF5
:10361000F11C0E151F0561F481E09981911180E084
:103620000F90DF91CF911F910F91FF90EF90089530
:103630000E94C31ACE0101960E94D11AF80181930B
:103640008F01E7CF509A589A08955098589AE89A5F
:10365000E9E6F0E080818C7F808308956150770BEC
:1036600091E001C0990F6A95EAF720E031E09111ED
:1036700008C0222391F0589A80E28A95F1F7589871
:103680000895492F482339F0589A232740E24A9554
:10369000F1F79695ECCF5898F9CF5898EDCFFF9267
:1036A0000F931F93CF93DF93EC018C01060F111D35
:1036B000C017D10731F4DF91CF911F910F91FF9087
:1036C0000895F9900E94CB1A68E08F2D0E942E1B5E
:1036D000EFCF1F920F920FB60F921124EF92FF922D
:1036E0000F931F932F933F934F935F936F937F930A
:1036F0008F939F93AF93BF93EF93FF93CF93DF93FA
:103700000F92CDB7DEB719820E94C31ACE0101967F
:103710000E94D11AA82FA695A695A695282F229586
:1037200025709A2F9570290F922F937026952695C4
:10373000920F982797708981982B09F075C0A43053
:1037400008F072C080E18A95F1F7589A509AB2E079
:10375000BA95F1F700C05898EA2EF12CEAE0AE9F36
:10376000D0011124AB5FBE4F1896ED91FC911997D3
:103770003097B1F06091AC017091AD0116962D912A
:103780003C911797260F371F13968D919C91149794
:10379000680F791F15964C91159712968C91099583
:1037A0008AE08E9DF0018F9DF00D1124EB5FFE4F9E
:1037B0006581662351F02091AC013091AD01868185
:1037C0009781820F931F0E944F1B0E94CB1AF0E13A
:1037D000FA95F1F758985098589A80E18A95F1F740
:1037E0008AE08E9D80018F9D100D11240B5F1E4F6E
:1037F000D80112966C911297662371F12091AC0159
:103800003091AD0113968D919C91820F931F0E9470
:10381000FB1AD801ED91FC91882311F088E001C0DA
:1038200082E080830E94C31A0F90DF91CF91FF91B5
:10383000EF91BF91AF919F918F917F916F915F9128
:103840004F913F912F911F910F91FF90EF900F900B
:103850000FBE0F901F901895ED91FC91DFCF0F9345
:103860001F93CF93DF93EC0104970CF0A9C08AE07B
:103870008C9FF0018D9FF00D1124EB5FFE4F808136
:103880009181892B09F49CC0F894509A589885E04E
:103890008A95F1F700008C2F869585709C2F957086
:1038A000890F982F937086958695890F8E0193E0E6
:1038B000000F111F9A95E1F7082B0E94CB1A00C048
:1038C00068E0802F0E942E1BA0E1AA95F1F7509886
:1038D000589A489B27C087E090E0489925C08AE025
:1038E0008C9F80018D9F100D11240B5F1E4FF801DE
:1038F00065816623A1F12091AC013091AD018681F3
:103900009781820F931F0E94FB1A811128C0509A41
:10391000589AD801ED91FC9182E08083789482E0FE
:1039200090E016C000C0D5CF0197B9F4509A589ACC
:103930008AE08C9FF0018D9FF00D1124EB5FFE4F0C
:103940000190F081E02D81E08083789481E090E027
:10395000DF91CF911F910F91089500C0BECF0E94BB
:10396000C31AB0E2BA95F1F75898509AE0E1EA9597
:10397000F1F78AE08C9FF0018D9FF00D1124EB5F31
:10398000FE4F6281662351F02091AC013091AD0170
:1039900083819481820F931F0E944F1B0E94CB1A38
:1039A0008AE08C9FF0018D9FF00D1124EB5FFE4F9C
:1039B0000190F081E02D1082789490E080E0C8CFF3
:1039C00084E090E0C5CF9093AF018093AE0108955D
:1039D000909381028093800208950E947012811159
:1039E00003C080917B020895E0918002F0918102F2
:1039F000309721F00190F081E02D099480E0089546
:103A0000E0918002F0918102309721F00280F381F1
:103A1000E02D09940895E0918002F09181023097A1
:103A200039F022E0DC012C930480F581E02D09942B
:103A3000089520917E0230917F022817390771F096
:103A400090937F0280937E02E0918002F091810248
:103A5000309721F00680F781E02D09940895209198
:103A60007C0230917D022817390771F090937D0216
:103A700080937C02E0918002F0918102309721F0E6
:103A80000084F185E02D099408959C012E5F3F4F3D
:103A9000AC01485F5F4F80E02417350709F40895B3
:103AA000F90191919F019923B9F38F5FF5CF6623B7
:103AB00049F0FC01329608962191261729F0E81763
:103AC000F907D1F780E0089581E008959C01FC0199
:103AD00032969FEF80E04191461751F09F3F19F4D5
:103AE000411101C0982F8F5F8630A9F79F3F09F4DD
:103AF0000895290F311D97FD3A95F90162830895C4
:103B0000FC01329608962191261303C0DF0111971C
:103B10001C92E817F907B9F708950C94661D0C94E8
:103B2000801D029626E0FC0111922A95E9F708957E
:103B300008950C94981D811105C081E08093820244
:103B40000C94991D82E0FACF83E0809382020C945A
:103B5000991D0C949B1D81E0809382020C94991D09
:103B60000C94AB1D08958091BA02843031F10E940B
:103B700025021092830288E190E020E40FB6F894C9
:103B8000A895809360000FBE2093600083B7817F6B
:103B9000846083BF83B7816083BF7894889583B73F
:103BA0008E7F83BF0FB6F894A895809160008861DE
:103BB00080936000109260000FBE089508950895EC
:103BC000CF930E94DE1D0E94E6110E94DF1DC0E01F
:103BD0008C2F0E94AE10811105C0CF5FCC30C1F791
:103BE000CF91089581E0FCCF0E9421060C948E02B3
:103BF0001F921FB61F9211248F939F93AF93BF9371
:103C000080918302811113C08091B2029091B3021E
:103C1000A091B402B091B5024196A11DB11D80934F
:103C2000B2029093B302A093B402B093B502BF91D5
:103C3000AF919F918F911F901FBE1F90189582E0AA
:103C400084BD93E095BD9AEF97BD80936E00089573
:103C50002FB7F8948091B2029091B302A091B40270
:103C6000B091B5022FBF08952FB7F8946091B202BA
:103C70007091B3028091B4029091B5022FBF089564
:103C80009C014FB7F8948091B2029091B302A09139
:103C9000B402B091B5024FBF821B930B0895CF922F
:103CA000DF92EF92FF922FB7F894C090B202D090BB
:103CB000B302E090B402F090B5022FBFA7019601C5
:103CC000261B370B480B590BCA01B901FF90EF9027
:103CD000DF90CF90089578941F921FB61F92112401
:103CE0008F939F93AF93BF938091B2029091B30251
:103CF000A091B402B091B5020196A11DB11D8093AF
:103D0000B2029093B302A093B402B093B502BF91F4
:103D1000AF919F918F911F901FBE1F90189581E0CA
:103D20008093E00080E28093D8001092C9008FE178
:103D30009EE40197F1F700C0000087E090EBDC0102
:103D40008093C3029093C402A093C502B093C602AD
:103D500088E19CE00FB6F894A895809360000FBEB0
:103D600090936000FFCF80918F02089508959C0189
:103D700082E08093E9009FEF8091E800915085FDFB
:103D800006C085ED8A95F1F700009111F5CF80917D
:103D9000E80085FF0CC050E040E066E070E0C9013B
:103DA0000E94DD208091E8008E778093E8000895DE
:103DB000CF93DF93EC0181E08093E9008FEF909146
:103DC000E800815095FD06C095ED9A95F1F7000049
:103DD0008111F5CF8091E80085FF14C050E040E0EC
:103DE00068E070E0CE010E94DD208091E8008E77CF
:103DF0008093E80088E0FE01A7E8B2E001900D9210
:103E00008A95E1F7DF91CF910895809384027093B2
:103E10008602609385028091BA02843001F582E0C7
:103E20008093E9008FEF9091E800815095FD06C0E6
:103E300095ED9A95F1F700008111F5CF8091E8009A
:103E400085FF0DC050E040E063E070E084E892E060
:103E50000E94DD208091E8008E778093E80008952D
:103E6000BC0184E00C94051FBC0183E00C94051F89
:103E70008091B902811109C00E946D220E94CA225C
:103E80008091E20084608093E20008951092B9026C
:103E900008950C94AB1D6091B60281E0611101C0E0
:103EA00080E00C94A41D9091BA0281E0943009F056
:103EB00080E06091B6020C94A91D42E061EC81E0C3
:103EC0000E94E92142E261EC82E00E94E9219091A6
:103ED000BA0281E0943009F080E06091B6020C945F
:103EE0009B1D8091BC02833009F460C030F48130A6
:103EF000C9F1823009F49CC008958A3009F488C061
:103F00008B3009F46EC0893009F04FC08091BB023C
:103F1000813209F04AC08091BF029091C00202979D
:103F200008F043C08091E800877F8093E80080918B
:103F3000E80082FF36C09091F3008091F200029772
:103F400031F48091F100813011F0863021F48091BC
:103F5000F10080938F028091E8008B778093E800D6
:103F60000C941D228091BB02813AF9F48091E80003
:103F7000877F8093E8008091BF029091C002892BD7
:103F800061F468E087E892E070E00E942C21809163
:103F9000E8008B778093E800089560E090E080E08F
:103FA000F3CF8091BA028111C2CF08958091BB02F4
:103FB000813AD9F78091BF029091C002892BA9F76D
:103FC0008091E800877F8093E8008091E80080FF7F
:103FD000FCCF809137018093F1008091E8008E77CB
:103FE000BDCF8091BB02813201F78091BF029091D9
:103FF000C002892BD1F68091E800877F8093E8008A
:104000000E941D228091BD02809337010C942106ED
:104010008091BB02813249F68091E800877F8093CE
:10402000E8000E941D228091BE02809390020895B4
:104030008091BB02813A09F0B8CF8091E800877F78
:104040008093E8008091E80080FFFCCF809190028F
:10405000C2CF84B7877F84BF0FB6F894A8958091AC
:104060006000886180936000109260000FBE80E85D
:1040700090E00FB6F89480936100909361000FBEBA
:104080000C94B01D0E946D220E94CA22E2EEF0E064
:1040900080818460808378940C9453258BE291E036
:1040A0000C94E81C8091BA028530A9F48091BA0280
:1040B000853011F00C94F41D0E94B31D8091B8025C
:1040C0008823A1F30E94E01D882381F30E94C7206A
:1040D0000E942106EBCF089508950C946F20292F9C
:1040E00033272330310519F168F42130310509F403
:1040F00044C02230310509F445C090E080E030E052
:1041000020E025C02132310549F122323105A9F7DD
:1041100080E490E028EB32E061157105C1F08BE797
:1041200090E02DE332E06130710589F0E6CF992708
:104130008130910581F0009729F00297F1F6ECECBF
:10414000F1E002C0ECEEF1E0849190E09F01FA0111
:10415000318320830895EAEDF1E0F6CF89E090E025
:1041600022E032E06115710591F389E090E02BE1E6
:1041700032E06130710559F3C0CF82E190E02BE26B
:1041800032E0E5CF8BE390E020EF31E0E0CF80E15B
:1041900089BD82E189BD09B400FEFDCF8091D800C0
:1041A0008F7D8093D8008091E00082608093E00052
:1041B0008091E00081FDFCCF0895AF92BF92CF9235
:1041C000DF92FF920F931F93CF93DF936C01EB016C
:1041D0008A010E943C22F82E811123C0011511058D
:1041E00039F0F80180819181C81BD90BC80ED91E06
:1041F000B12CA12C2097A9F08091E80085FD22C068
:104200008091E8008E778093E80001151105A1F0F8
:10421000F80180819181A80EB91EB182A08285E04B
:10422000F82E8F2DDF91CF911F910F91FF90DF908E
:10423000CF90BF90AF9008950E943C228823D1F286
:10424000F82EEFCFF60181916F018093F100219755
:10425000FFEFAF1ABF0ACECFFC018091C10290914F
:10426000C20286179707A0F06115710529F4909195
:10427000E8009E779093E80090E06115710551F495
:10428000911108C08091E80082FF34C080E0089559
:10429000BC01F2CF8091BA028823C1F18530C1F10F
:1042A0008091E80083FD30C08091E80082FDEACF74
:1042B0008091E80080FFE1CF8091F3002091F2002F
:1042C000382F6115710519F02830310558F091E04B
:1042D0002830310509F090E02091E8002E772093F6
:1042E000E800CBCF81918093F100615071092F5F7D
:1042F0003F4FE7CF8091BA02882341F0853041F0EB
:104300008091E80083FFBECF81E0089582E00895A8
:1043100083E00895FC018091C1029091C20286174A
:104320009707A0F06115710529F48091E8008E7758
:104330008093E80090E06115710551F4911108C077
:104340008091E80082FF35C080E00895BC01F2CF83
:104350008091BA028823C9F18530C9F18091E800C3
:1043600083FD31C08091E80082FDEACF8091E800B2
:1043700080FFE1CF8091F3002091F200382F61158A
:10438000710519F02830310558F091E028303105D9
:1043900009F090E08091E8008E778093E800CBCF21
:1043A00084918093F1003196615071092F5F3F4FE6
:1043B000E6CF8091BA02882341F0853041F08091A8
:1043C000E80083FFBDCF81E0089582E0089583E097
:1043D0000895982F973028F08F708093E90081E03E
:1043E00008959093E900242F762F50E0981731F02C
:1043F0007091EC002091ED005091F00021FD02C081
:104400009F5FE8CF3091EB003E7F3093EB0030911F
:10441000ED003D7F3093ED003091EB003160309343
:10442000EB007093EC002093ED005093F00020918E
:10443000EE0027FDE5CF80E008958091BB0287FF65
:1044400013C08091E80082FF06C08091E8008B775E
:104450008093E80004C08091BA028111F2CF0895E0
:104460008091BA028823D9F38091E80080FFF8CFC9
:104470008091E8008E77ECCF2091E4003091E50048
:1044800095E6A9012091EC00822F817020FF06C0E3
:104490008091E80080FF06C080E008952091E80048
:1044A00022FD1AC08091BA02882389F0853089F0F4
:1044B0008091EB0085FD0FC02091E4003091E50074
:1044C00042175307F9F29150E1F684E0089582E033
:1044D000089583E0089581E008950E94DB220E9400
:1044E000E322E0EEF0E0808181608083E8EDF0E09F
:1044F00080818F77808319BCA7EDB0E08C918E7F8F
:104500008C9380818F7E80831092B90208950F93DF
:104510001F93CF93DF930E94DB220E94E322C8ED1A
:10452000D0E088818F7788838881806888838881BC
:104530008F7D888319BC1092BA021092B602109235
:10454000B8021092B70200EE10E0F80180818B7F74
:10455000808388818160888342E060E080E00E94FF
:10456000E921E1EEF0E080818E7F8083E2EEF0E0F1
:10457000808181608083808188608083F801808170
:104580008E7F8083888180618883DF91CF911F91A6
:104590000F910895E8EDF0E080818F7E8083E7ED54
:1045A000F0E080818160808384E082BF81E080933D
:1045B000B9020C948722E8EDF0E080818E7F808341
:1045C0001092E20008951092DA001092E10008952E
:1045D0001F920F920FB60F9211242F933F934F9378
:1045E0005F936F937F938F939F93AF93BF93EF935B
:1045F000FF938091E10082FF0BC08091E20082FF77
:1046000007C08091E1008B7F8093E1000E945225DA
:104610008091DA0080FF19C08091D80080FF15C01A
:104620008091DA008E7F8093DA008091D90080FF3C
:1046300096C080E189BD82E189BD09B400FEFDCF4D
:1046400081E08093BA020E94381F8091E10080FFD0
:1046500019C08091E20080FF15C08091E2008E7F3A
:104660008093E2008091E20080618093E20080917B
:10467000D80080628093D80019BC85E08093BA028C
:104680000E944B1F8091E10084FF2BC08091E200CB
:1046900084FF27C080E189BD82E189BD89B5982F5B
:1046A000917080FFFBCF8091D8008F7D8093D800E0
:1046B0008091E1008F7E8093E1008091E2008F7E07
:1046C0008093E2008091E20081608093E20080911B
:1046D000B602882309F449C084E08093BA020E949C
:1046E000531F8091E10083FF29C08091E20083FF86
:1046F00025C08091E100877F8093E10082E0809374
:10470000BA021092B6028091E1008E7F8093E100A0
:104710008091E2008E7F8093E2008091E2008061D0
:104720008093E20042E060E080E00E94E921809115
:10473000F00088608093F0000E94491FFF91EF9184
:10474000BF91AF919F918F917F916F915F914F91A9
:104750003F912F910F900FBE0F901F90189519BC8D
:104760001092BA020E94461F70CF8091E30087FD2D
:1047700093E09093BA02B3CF1F920F920FB60F92AD
:1047800011242F933F934F935F936F937F938F9356
:104790009F93AF93BF93CF93DF93EF93FF93D0910A
:1047A000E900DF708091EC00C82FC17080FDC0E887
:1047B0001092E9008091F000877F8093F000789458
:1047C0000E9400241092E9008091F000886080939C
:1047D000F000CD2BCF70C093E900FF91EF91DF91F6
:1047E000CF91BF91AF919F918F917F916F915F9189
:1047F0004F913F912F910F900FBE0F901F901895E2
:104800001F93CF93DF93CDB7DEB7AA970FB6F89477
:10481000DEBF0FBECDBF8BEB92E02091F100FC011B
:104820002193CF01F2E0833C9F07B9F70E94711FEB
:104830008091E80083FF1EC18091BB029091BC0271
:104840009A3008F017C1E92FF0E0EA5DF94D0C94B9
:104850009425803899F0823809F00CC18091BF020C
:104860008F70873008F006C18093E9008091EB00DB
:1048700085FB882780F91092E90006C08091B70275
:104880009091B802911182609091E800977F909387
:10489000E8008093F1001092F1008091E8008E779B
:1048A000E5C0882309F4D3C0823009F0E3C08091C9
:1048B000BD028111D6C08091BF028F702FEF280FEB
:1048C000263008F0D7C08093E9002091EB0020FF4C
:1048D000C8C0933031F48091EB0080628093EB008C
:1048E000C0C09091EB0090619093EB0021E030E02C
:1048F00001C0220F8A95EAF72093EA001092EA009D
:104900008091EB008860EACF8111B4C01091BD02A4
:104910001F778091E3008078812B8093E300809162
:10492000E800877F8093E8000E941D228091E800C4
:1049300080FFFCCF8091E30080688093E30082E0F9
:10494000111183E08093BA0295C08058823008F03C
:1049500091C08091BD029091BE028C3D23E09207F0
:10496000A1F583E08A838AE289834FB7F894DE0158
:10497000139620E03EE051E2E32FF0E05093570021
:10498000E49120FF03C0E295EF703F5FEF708E2F40
:1049900090E0EA30C0F0C7968D939D932F5F24314D
:1049A00059F74FBF8091E800877F8093E8006AE263
:1049B00070E0CE0101960E942C218091E8008B7757
:1049C0008093E80057C0C096E7CF6091BF02709116
:1049D000C002AE014F5F5F4F0E946D20BC01892B6A
:1049E00009F448C09091E800977F9093E80089818E
:1049F0009A810E948A21E1CF8038E1F58091E80018
:104A0000877F8093E8008091B6028093F10045CFC4
:104A1000811130C09091BD02923060F58091E80024
:104A2000877F8093E8009093B6020E941D228091B8
:104A3000B602882311F084E005C08091E30087FD71
:104A4000FACF81E08093BA020E945D1F13C080916B
:104A5000BD02813079F481E0933009F080E08093E9
:104A6000B8021092E9008091E800877F8093E80007
:104A70000E941D228091E80083FF0AC08091E80017
:104A8000877F8093E8008091EB0080628093EB0049
:104A9000AA960FB6F894DEBF0FBECDBFDF91CF91BF
:104AA0001F9108950895CF938091BA028823A1F0B1
:104AB000C091E900CF709091EC00892F817090FD3A
:104AC00080E8C82B1092E9008091E80083FD0E94E5
:104AD0000024CF70C093E900CF9108950E946D2209
:104AE0001092BA020895E8EDF0E080818061808341
:104AF0008AE18A95F1F700C08091D900817008950C
:104B000097FB072E16F4009407D077FD09D00E947A
:104B10009A2507FC05D03EF4909581959F4F089506
:104B2000709561957F4F0895EE0FFF1F0590F491EA
:104B3000E02D0994AA1BBB1B51E107C0AA1FBB1F94
:104B4000A617B70710F0A61BB70B881F991F5A9519
:104B5000A9F780959095BC01CD010895FB01DC017A
:104B600004C08D910190801921F441505040C8F744
:104B7000881B990B0895FB01DC0102C001900D9286
:104B800041505040D8F70895F999FECF92BD81BDAC
:104B9000F89A992780B50895A8E1B0E042E050E086
:104BA0000C94F825262FF999FECF92BD81BDF89A75
:104BB000019700B4021639F01FBA20BD0FB6F89461
:104BC000FA9AF99A0FBE08950396272F0E94D325CB
:104BD0000E94D225252F0E94D325242F0C94D32563
:104BE0000196272F0E94D3250C94D225DC01CB01FE
:104BF000FC01F999FECF06C0F2BDE1BDF89A3196ED
:104C000000B40D9241505040B8F70895F894FFCF8A
:104C1000D003D003010401049404B0043004300430
:104C2000BB04470556055605AE0530043004B705EC
:104C300030063006390639063B063906390639068C
:104C4000300630064006390639064006292451242C
:104C50003A2551243A258424A5243A25FC24082504
:104C6000C800200201B1020000000100000000B1F4
:104C7000020000000601000000B10204070000006D
:104C80000000002808641E140A321EB31ED81EB786
:104C90001E341F301FB61E01E200E900EA00B50015
:104CA000B600B700CD008301CC008A0192019401C7
:104CB0002102230224022502260227022A02B3002F
:104CC000B4006F007000818283E200E900EA00B561
:104CD00000B600B700CD008301CC008A0192019498
:104CE000012102230224022502260227022A02B3FE
:104CF00000B4006F007000818283946697C63435DB
:0E4D0000F6F7313332360000000000004902A1
:00000001FF
